{
  "_format": "hh-sol-artifact-1",
  "contractName": "DataAggregator",
  "sourceName": "contracts/DataAggregator.sol",
  "abi": [
    {
      "inputs": [
        {
          "internalType": "address",
          "name": "_utils",
          "type": "address"
        }
      ],
      "stateMutability": "nonpayable",
      "type": "constructor"
    },
    {
      "inputs": [
        {
          "internalType": "address",
          "name": "pairAddress",
          "type": "address"
        }
      ],
      "name": "getMetadata",
      "outputs": [
        {
          "internalType": "address",
          "name": "factoryAddress",
          "type": "address"
        },
        {
          "internalType": "address",
          "name": "token0Address",
          "type": "address"
        },
        {
          "internalType": "string",
          "name": "token0Name",
          "type": "string"
        },
        {
          "internalType": "string",
          "name": "token0Symbol",
          "type": "string"
        },
        {
          "internalType": "uint8",
          "name": "token0Decimals",
          "type": "uint8"
        },
        {
          "internalType": "address",
          "name": "token1Address",
          "type": "address"
        },
        {
          "internalType": "string",
          "name": "token1Name",
          "type": "string"
        },
        {
          "internalType": "string",
          "name": "token1Symbol",
          "type": "string"
        },
        {
          "internalType": "uint8",
          "name": "token1Decimals",
          "type": "uint8"
        }
      ],
      "stateMutability": "view",
      "type": "function"
    },
    {
      "inputs": [
        {
          "internalType": "address",
          "name": "_utils",
          "type": "address"
        }
      ],
      "name": "setUtilsAddress",
      "outputs": [],
      "stateMutability": "nonpayable",
      "type": "function"
    }
  ],
  "bytecode": "0x608060405234801561001057600080fd5b506040516200125938038062001259833981810160405281019061003491906100d0565b336000806101000a81548173ffffffffffffffffffffffffffffffffffffffff021916908373ffffffffffffffffffffffffffffffffffffffff16021790555080600160006101000a81548173ffffffffffffffffffffffffffffffffffffffff021916908373ffffffffffffffffffffffffffffffffffffffff16021790555050610142565b6000815190506100ca8161012b565b92915050565b6000602082840312156100e257600080fd5b60006100f0848285016100bb565b91505092915050565b60006101048261010b565b9050919050565b600073ffffffffffffffffffffffffffffffffffffffff82169050919050565b610134816100f9565b811461013f57600080fd5b50565b61110780620001526000396000f3fe608060405234801561001057600080fd5b50600436106100365760003560e01c80630fd8779b1461003b5780632a50c14614610057575b600080fd5b61005560048036038101906100509190610c2b565b61008f565b005b610071600480360381019061006c9190610c2b565b61012b565b60405161008699989796959493929190610df7565b60405180910390f35b60008054906101000a900473ffffffffffffffffffffffffffffffffffffffff1673ffffffffffffffffffffffffffffffffffffffff163373ffffffffffffffffffffffffffffffffffffffff16146100e757600080fd5b80600160006101000a81548173ffffffffffffffffffffffffffffffffffffffff021916908373ffffffffffffffffffffffffffffffffffffffff16021790555050565b60008060608060008060608060006101428a610185565b809650819a50829b505050506101578861049c565b80975081985082995050505061016c8461049c565b8093508194508295505050509193959799909294969850565b6000806000808473ffffffffffffffffffffffffffffffffffffffff166040516024016040516020818303038152906040527fc45a0155000000000000000000000000000000000000000000000000000000007bffffffffffffffffffffffffffffffffffffffffffffffffffffffff19166020820180517bffffffffffffffffffffffffffffffffffffffffffffffffffffffff83818316178352505050506040516102329190610de0565b600060405180830381855afa9150503d806000811461026d576040519150601f19603f3d011682016040523d82523d6000602084013e610272565b606091505b5091505060008573ffffffffffffffffffffffffffffffffffffffff166040516024016040516020818303038152906040527f0dfe1681000000000000000000000000000000000000000000000000000000007bffffffffffffffffffffffffffffffffffffffffffffffffffffffff19166020820180517bffffffffffffffffffffffffffffffffffffffffffffffffffffffff838183161783525050505060405161031f9190610de0565b600060405180830381855afa9150503d806000811461035a576040519150601f19603f3d011682016040523d82523d6000602084013e61035f565b606091505b5091505060008673ffffffffffffffffffffffffffffffffffffffff166040516024016040516020818303038152906040527fd21220a7000000000000000000000000000000000000000000000000000000007bffffffffffffffffffffffffffffffffffffffffffffffffffffffff19166020820180517bffffffffffffffffffffffffffffffffffffffffffffffffffffffff838183161783525050505060405161040c9190610de0565b600060405180830381855afa9150503d8060008114610447576040519150601f19603f3d011682016040523d82523d6000602084013e61044c565b606091505b50915050828060200190518101906104649190610c54565b95508180602001905181019061047a9190610c54565b9450808060200190518101906104909190610c54565b93505050509193909250565b6060806000808473ffffffffffffffffffffffffffffffffffffffff166040516024016040516020818303038152906040527f06fdde03000000000000000000000000000000000000000000000000000000007bffffffffffffffffffffffffffffffffffffffffffffffffffffffff19166020820180517bffffffffffffffffffffffffffffffffffffffffffffffffffffffff83818316178352505050506040516105499190610de0565b600060405180830381855afa9150503d8060008114610584576040519150601f19603f3d011682016040523d82523d6000602084013e610589565b606091505b5091505060008573ffffffffffffffffffffffffffffffffffffffff166040516024016040516020818303038152906040527f95d89b41000000000000000000000000000000000000000000000000000000007bffffffffffffffffffffffffffffffffffffffffffffffffffffffff19166020820180517bffffffffffffffffffffffffffffffffffffffffffffffffffffffff83818316178352505050506040516106369190610de0565b600060405180830381855afa9150503d8060008114610671576040519150601f19603f3d011682016040523d82523d6000602084013e610676565b606091505b5091505060008673ffffffffffffffffffffffffffffffffffffffff166040516024016040516020818303038152906040527f313ce567000000000000000000000000000000000000000000000000000000007bffffffffffffffffffffffffffffffffffffffffffffffffffffffff19166020820180517bffffffffffffffffffffffffffffffffffffffffffffffffffffffff83818316178352505050506040516107239190610de0565b600060405180830381855afa9150503d806000811461075e576040519150601f19603f3d011682016040523d82523d6000602084013e610763565b606091505b509150506000600160009054906101000a900473ffffffffffffffffffffffffffffffffffffffff1690508073ffffffffffffffffffffffffffffffffffffffff16630a2cdf92856040518263ffffffff1660e01b81526004016107c79190610ebb565b60006040518083038186803b1580156107df57600080fd5b505afa92505050801561081557506040513d6000823e3d601f19601f820116820180604052508101906108129190610ca6565b60015b610969573d8060008114610845576040519150601f19603f3d011682016040523d82523d6000602084013e61084a565b606091505b508173ffffffffffffffffffffffffffffffffffffffff16639201de558373ffffffffffffffffffffffffffffffffffffffff166392aec02a886040518263ffffffff1660e01b81526004016108a09190610ebb565b60206040518083038186803b1580156108b857600080fd5b505afa1580156108cc573d6000803e3d6000fd5b505050506040513d601f19601f820116820180604052508101906108f09190610c7d565b6040518263ffffffff1660e01b815260040161090c9190610ea0565b60006040518083038186803b15801561092457600080fd5b505afa158015610938573d6000803e3d6000fd5b505050506040513d6000823e3d601f19601f820116820180604052508101906109619190610ca6565b97505061096e565b809750505b8073ffffffffffffffffffffffffffffffffffffffff16630a2cdf92846040518263ffffffff1660e01b81526004016109a79190610ebb565b60006040518083038186803b1580156109bf57600080fd5b505afa9250505080156109f557506040513d6000823e3d601f19601f820116820180604052508101906109f29190610ca6565b60015b610b49573d8060008114610a25576040519150601f19603f3d011682016040523d82523d6000602084013e610a2a565b606091505b508173ffffffffffffffffffffffffffffffffffffffff16639201de558373ffffffffffffffffffffffffffffffffffffffff166392aec02a876040518263ffffffff1660e01b8152600401610a809190610ebb565b60206040518083038186803b158015610a9857600080fd5b505afa158015610aac573d6000803e3d6000fd5b505050506040513d601f19601f82011682018060405250810190610ad09190610c7d565b6040518263ffffffff1660e01b8152600401610aec9190610ea0565b60006040518083038186803b158015610b0457600080fd5b505afa158015610b18573d6000803e3d6000fd5b505050506040513d6000823e3d601f19601f82011682018060405250810190610b419190610ca6565b965050610b4e565b809650505b81806020019051810190610b629190610ce7565b9450505050509193909250565b6000610b82610b7d84610f02565b610edd565b905082815260208101848484011115610b9a57600080fd5b610ba5848285610fd1565b509392505050565b600081359050610bbc81611075565b92915050565b600081519050610bd18161108c565b92915050565b600081519050610be6816110a3565b92915050565b600082601f830112610bfd57600080fd5b8151610c0d848260208601610b6f565b91505092915050565b600081519050610c25816110ba565b92915050565b600060208284031215610c3d57600080fd5b6000610c4b84828501610bad565b91505092915050565b600060208284031215610c6657600080fd5b6000610c7484828501610bc2565b91505092915050565b600060208284031215610c8f57600080fd5b6000610c9d84828501610bd7565b91505092915050565b600060208284031215610cb857600080fd5b600082015167ffffffffffffffff811115610cd257600080fd5b610cde84828501610bec565b91505092915050565b600060208284031215610cf957600080fd5b6000610d0784828501610c16565b91505092915050565b610d1981610f76565b82525050565b610d2881610f9a565b82525050565b6000610d3982610f33565b610d438185610f49565b9350610d53818560208601610fd1565b610d5c81611064565b840191505092915050565b6000610d7282610f33565b610d7c8185610f5a565b9350610d8c818560208601610fd1565b80840191505092915050565b6000610da382610f3e565b610dad8185610f65565b9350610dbd818560208601610fd1565b610dc681611064565b840191505092915050565b610dda81610fc4565b82525050565b6000610dec8284610d67565b915081905092915050565b600061012082019050610e0d600083018c610d10565b610e1a602083018b610d10565b8181036040830152610e2c818a610d98565b90508181036060830152610e408189610d98565b9050610e4f6080830188610dd1565b610e5c60a0830187610d10565b81810360c0830152610e6e8186610d98565b905081810360e0830152610e828185610d98565b9050610e92610100830184610dd1565b9a9950505050505050505050565b6000602082019050610eb56000830184610d1f565b92915050565b60006020820190508181036000830152610ed58184610d2e565b905092915050565b6000610ee7610ef8565b9050610ef38282611004565b919050565b6000604051905090565b600067ffffffffffffffff821115610f1d57610f1c611035565b5b610f2682611064565b9050602081019050919050565b600081519050919050565b600081519050919050565b600082825260208201905092915050565b600081905092915050565b600082825260208201905092915050565b6000610f8182610fa4565b9050919050565b6000610f9382610fa4565b9050919050565b6000819050919050565b600073ffffffffffffffffffffffffffffffffffffffff82169050919050565b600060ff82169050919050565b60005b83811015610fef578082015181840152602081019050610fd4565b83811115610ffe576000848401525b50505050565b61100d82611064565b810181811067ffffffffffffffff8211171561102c5761102b611035565b5b80604052505050565b7f4e487b7100000000000000000000000000000000000000000000000000000000600052604160045260246000fd5b6000601f19601f8301169050919050565b61107e81610f76565b811461108957600080fd5b50565b61109581610f88565b81146110a057600080fd5b50565b6110ac81610f9a565b81146110b757600080fd5b50565b6110c381610fc4565b81146110ce57600080fd5b5056fea2646970667358221220d7fd4feb176589d2f18c80b55f54226a8fe6382ef3d8ba885d58e0fe09f08d1464736f6c63430008040033",
  "linkReferences": {},
  "deployedLinkReferences": {}
}