{
  "_format": "hh-sol-artifact-1",
  "contractName": "DataAggregator",
  "sourceName": "contracts/DataAggregator.sol",
  "abi": [
    {
      "inputs": [
        {
          "internalType": "address",
          "name": "_utils",
          "type": "address"
        }
      ],
      "stateMutability": "nonpayable",
      "type": "constructor"
    },
    {
      "inputs": [
        {
          "internalType": "address",
          "name": "pairAddress",
          "type": "address"
        }
      ],
      "name": "getPairMetadata",
      "outputs": [
        {
          "internalType": "address",
          "name": "factory_address",
          "type": "address"
        },
        {
          "internalType": "address",
          "name": "token0_address",
          "type": "address"
        },
        {
          "internalType": "string",
          "name": "token0_name",
          "type": "string"
        },
        {
          "internalType": "string",
          "name": "token0_symbol",
          "type": "string"
        },
        {
          "internalType": "uint8",
          "name": "token0_decimals",
          "type": "uint8"
        },
        {
          "internalType": "address",
          "name": "token1_address",
          "type": "address"
        },
        {
          "internalType": "string",
          "name": "token1_name",
          "type": "string"
        },
        {
          "internalType": "string",
          "name": "token1_symbol",
          "type": "string"
        },
        {
          "internalType": "uint8",
          "name": "token1_decimals",
          "type": "uint8"
        }
      ],
      "stateMutability": "view",
      "type": "function"
    },
    {
      "inputs": [
        {
          "internalType": "address",
          "name": "_utils",
          "type": "address"
        }
      ],
      "name": "setUtilsAddress",
      "outputs": [],
      "stateMutability": "nonpayable",
      "type": "function"
    }
  ],
  "bytecode": "0x608060405234801561001057600080fd5b506040516200123838038062001238833981810160405281019061003491906100d0565b336000806101000a81548173ffffffffffffffffffffffffffffffffffffffff021916908373ffffffffffffffffffffffffffffffffffffffff16021790555080600160006101000a81548173ffffffffffffffffffffffffffffffffffffffff021916908373ffffffffffffffffffffffffffffffffffffffff16021790555050610142565b6000815190506100ca8161012b565b92915050565b6000602082840312156100e257600080fd5b60006100f0848285016100bb565b91505092915050565b60006101048261010b565b9050919050565b600073ffffffffffffffffffffffffffffffffffffffff82169050919050565b610134816100f9565b811461013f57600080fd5b50565b6110e680620001526000396000f3fe608060405234801561001057600080fd5b50600436106100365760003560e01c80630fd8779b1461003b578063d877aca714610057575b600080fd5b61005560048036038101906100509190610c0a565b61008f565b005b610071600480360381019061006c9190610c0a565b61012b565b60405161008699989796959493929190610dd6565b60405180910390f35b60008054906101000a900473ffffffffffffffffffffffffffffffffffffffff1673ffffffffffffffffffffffffffffffffffffffff163373ffffffffffffffffffffffffffffffffffffffff16146100e757600080fd5b80600160006101000a81548173ffffffffffffffffffffffffffffffffffffffff021916908373ffffffffffffffffffffffffffffffffffffffff16021790555050565b6000806060806000806060806000808a73ffffffffffffffffffffffffffffffffffffffff166040516024016040516020818303038152906040527fc45a0155000000000000000000000000000000000000000000000000000000007bffffffffffffffffffffffffffffffffffffffffffffffffffffffff19166020820180517bffffffffffffffffffffffffffffffffffffffffffffffffffffffff83818316178352505050506040516101e19190610dbf565b600060405180830381855afa9150503d806000811461021c576040519150601f19603f3d011682016040523d82523d6000602084013e610221565b606091505b5091505060008b73ffffffffffffffffffffffffffffffffffffffff166040516024016040516020818303038152906040527f0dfe1681000000000000000000000000000000000000000000000000000000007bffffffffffffffffffffffffffffffffffffffffffffffffffffffff19166020820180517bffffffffffffffffffffffffffffffffffffffffffffffffffffffff83818316178352505050506040516102ce9190610dbf565b600060405180830381855afa9150503d8060008114610309576040519150601f19603f3d011682016040523d82523d6000602084013e61030e565b606091505b5091505060008c73ffffffffffffffffffffffffffffffffffffffff166040516024016040516020818303038152906040527fd21220a7000000000000000000000000000000000000000000000000000000007bffffffffffffffffffffffffffffffffffffffffffffffffffffffff19166020820180517bffffffffffffffffffffffffffffffffffffffffffffffffffffffff83818316178352505050506040516103bb9190610dbf565b600060405180830381855afa9150503d80600081146103f6576040519150601f19603f3d011682016040523d82523d6000602084013e6103fb565b606091505b50915050828060200190518101906104139190610c33565b9b50818060200190518101906104299190610c33565b9a508080602001905181019061043f9190610c33565b965061044a8b61047b565b809a50819b50829c5050505061045f8761047b565b8096508197508298505050505050509193959799909294969850565b6060806000808473ffffffffffffffffffffffffffffffffffffffff166040516024016040516020818303038152906040527f06fdde03000000000000000000000000000000000000000000000000000000007bffffffffffffffffffffffffffffffffffffffffffffffffffffffff19166020820180517bffffffffffffffffffffffffffffffffffffffffffffffffffffffff83818316178352505050506040516105289190610dbf565b600060405180830381855afa9150503d8060008114610563576040519150601f19603f3d011682016040523d82523d6000602084013e610568565b606091505b5091505060008573ffffffffffffffffffffffffffffffffffffffff166040516024016040516020818303038152906040527f95d89b41000000000000000000000000000000000000000000000000000000007bffffffffffffffffffffffffffffffffffffffffffffffffffffffff19166020820180517bffffffffffffffffffffffffffffffffffffffffffffffffffffffff83818316178352505050506040516106159190610dbf565b600060405180830381855afa9150503d8060008114610650576040519150601f19603f3d011682016040523d82523d6000602084013e610655565b606091505b5091505060008673ffffffffffffffffffffffffffffffffffffffff166040516024016040516020818303038152906040527f313ce567000000000000000000000000000000000000000000000000000000007bffffffffffffffffffffffffffffffffffffffffffffffffffffffff19166020820180517bffffffffffffffffffffffffffffffffffffffffffffffffffffffff83818316178352505050506040516107029190610dbf565b600060405180830381855afa9150503d806000811461073d576040519150601f19603f3d011682016040523d82523d6000602084013e610742565b606091505b509150506000600160009054906101000a900473ffffffffffffffffffffffffffffffffffffffff1690508073ffffffffffffffffffffffffffffffffffffffff16630a2cdf92856040518263ffffffff1660e01b81526004016107a69190610e9a565b60006040518083038186803b1580156107be57600080fd5b505afa9250505080156107f457506040513d6000823e3d601f19601f820116820180604052508101906107f19190610c85565b60015b610948573d8060008114610824576040519150601f19603f3d011682016040523d82523d6000602084013e610829565b606091505b508173ffffffffffffffffffffffffffffffffffffffff16639201de558373ffffffffffffffffffffffffffffffffffffffff166392aec02a886040518263ffffffff1660e01b815260040161087f9190610e9a565b60206040518083038186803b15801561089757600080fd5b505afa1580156108ab573d6000803e3d6000fd5b505050506040513d601f19601f820116820180604052508101906108cf9190610c5c565b6040518263ffffffff1660e01b81526004016108eb9190610e7f565b60006040518083038186803b15801561090357600080fd5b505afa158015610917573d6000803e3d6000fd5b505050506040513d6000823e3d601f19601f820116820180604052508101906109409190610c85565b97505061094d565b809750505b8073ffffffffffffffffffffffffffffffffffffffff16630a2cdf92846040518263ffffffff1660e01b81526004016109869190610e9a565b60006040518083038186803b15801561099e57600080fd5b505afa9250505080156109d457506040513d6000823e3d601f19601f820116820180604052508101906109d19190610c85565b60015b610b28573d8060008114610a04576040519150601f19603f3d011682016040523d82523d6000602084013e610a09565b606091505b508173ffffffffffffffffffffffffffffffffffffffff16639201de558373ffffffffffffffffffffffffffffffffffffffff166392aec02a876040518263ffffffff1660e01b8152600401610a5f9190610e9a565b60206040518083038186803b158015610a7757600080fd5b505afa158015610a8b573d6000803e3d6000fd5b505050506040513d601f19601f82011682018060405250810190610aaf9190610c5c565b6040518263ffffffff1660e01b8152600401610acb9190610e7f565b60006040518083038186803b158015610ae357600080fd5b505afa158015610af7573d6000803e3d6000fd5b505050506040513d6000823e3d601f19601f82011682018060405250810190610b209190610c85565b965050610b2d565b809650505b81806020019051810190610b419190610cc6565b9450505050509193909250565b6000610b61610b5c84610ee1565b610ebc565b905082815260208101848484011115610b7957600080fd5b610b84848285610fb0565b509392505050565b600081359050610b9b81611054565b92915050565b600081519050610bb08161106b565b92915050565b600081519050610bc581611082565b92915050565b600082601f830112610bdc57600080fd5b8151610bec848260208601610b4e565b91505092915050565b600081519050610c0481611099565b92915050565b600060208284031215610c1c57600080fd5b6000610c2a84828501610b8c565b91505092915050565b600060208284031215610c4557600080fd5b6000610c5384828501610ba1565b91505092915050565b600060208284031215610c6e57600080fd5b6000610c7c84828501610bb6565b91505092915050565b600060208284031215610c9757600080fd5b600082015167ffffffffffffffff811115610cb157600080fd5b610cbd84828501610bcb565b91505092915050565b600060208284031215610cd857600080fd5b6000610ce684828501610bf5565b91505092915050565b610cf881610f55565b82525050565b610d0781610f79565b82525050565b6000610d1882610f12565b610d228185610f28565b9350610d32818560208601610fb0565b610d3b81611043565b840191505092915050565b6000610d5182610f12565b610d5b8185610f39565b9350610d6b818560208601610fb0565b80840191505092915050565b6000610d8282610f1d565b610d8c8185610f44565b9350610d9c818560208601610fb0565b610da581611043565b840191505092915050565b610db981610fa3565b82525050565b6000610dcb8284610d46565b915081905092915050565b600061012082019050610dec600083018c610cef565b610df9602083018b610cef565b8181036040830152610e0b818a610d77565b90508181036060830152610e1f8189610d77565b9050610e2e6080830188610db0565b610e3b60a0830187610cef565b81810360c0830152610e4d8186610d77565b905081810360e0830152610e618185610d77565b9050610e71610100830184610db0565b9a9950505050505050505050565b6000602082019050610e946000830184610cfe565b92915050565b60006020820190508181036000830152610eb48184610d0d565b905092915050565b6000610ec6610ed7565b9050610ed28282610fe3565b919050565b6000604051905090565b600067ffffffffffffffff821115610efc57610efb611014565b5b610f0582611043565b9050602081019050919050565b600081519050919050565b600081519050919050565b600082825260208201905092915050565b600081905092915050565b600082825260208201905092915050565b6000610f6082610f83565b9050919050565b6000610f7282610f83565b9050919050565b6000819050919050565b600073ffffffffffffffffffffffffffffffffffffffff82169050919050565b600060ff82169050919050565b60005b83811015610fce578082015181840152602081019050610fb3565b83811115610fdd576000848401525b50505050565b610fec82611043565b810181811067ffffffffffffffff8211171561100b5761100a611014565b5b80604052505050565b7f4e487b7100000000000000000000000000000000000000000000000000000000600052604160045260246000fd5b6000601f19601f8301169050919050565b61105d81610f55565b811461106857600080fd5b50565b61107481610f67565b811461107f57600080fd5b50565b61108b81610f79565b811461109657600080fd5b50565b6110a281610fa3565b81146110ad57600080fd5b5056fea264697066735822122051ed4753a0e8c5dbd20bf60b101c983b569e776c564e64f8cf351feddc3ff6d264736f6c63430008040033",
  "linkReferences": {},
  "deployedLinkReferences": {}
}