{
  "_format": "hh-sol-artifact-1",
  "contractName": "DataAggregator",
  "sourceName": "contracts/DataAggregator.sol",
  "abi": [
    {
      "inputs": [
        {
          "internalType": "address",
          "name": "pairAddress",
          "type": "address"
        }
      ],
      "name": "getTokenMetadata",
      "outputs": [
        {
          "internalType": "address",
          "name": "token0_address",
          "type": "address"
        },
        {
          "internalType": "string",
          "name": "token0_name",
          "type": "string"
        },
        {
          "internalType": "string",
          "name": "token0_symbol",
          "type": "string"
        },
        {
          "internalType": "uint8",
          "name": "token0_decimals",
          "type": "uint8"
        },
        {
          "internalType": "address",
          "name": "token1_address",
          "type": "address"
        },
        {
          "internalType": "string",
          "name": "token1_name",
          "type": "string"
        },
        {
          "internalType": "string",
          "name": "token1_symbol",
          "type": "string"
        },
        {
          "internalType": "uint8",
          "name": "token1_decimals",
          "type": "uint8"
        }
      ],
      "stateMutability": "view",
      "type": "function"
    }
  ],
  "bytecode": "0x608060405234801561001057600080fd5b506108b1806100206000396000f3fe608060405234801561001057600080fd5b506004361061002b5760003560e01c8063c00f14ab14610030575b600080fd5b61004a6004803603810190610045919061054b565b610067565b60405161005e98979695949392919061065e565b60405180910390f35b60006060806000806060806000808990508073ffffffffffffffffffffffffffffffffffffffff16630dfe16816040518163ffffffff1660e01b815260040160206040518083038186803b1580156100be57600080fd5b505afa1580156100d2573d6000803e3d6000fd5b505050506040513d601f19601f820116820180604052508101906100f69190610574565b98508073ffffffffffffffffffffffffffffffffffffffff1663d21220a76040518163ffffffff1660e01b815260040160206040518083038186803b15801561013e57600080fd5b505afa158015610152573d6000803e3d6000fd5b505050506040513d601f19601f820116820180604052508101906101769190610574565b9450600089905060008690508173ffffffffffffffffffffffffffffffffffffffff166306fdde036040518163ffffffff1660e01b815260040160006040518083038186803b1580156101c857600080fd5b505afa1580156101dc573d6000803e3d6000fd5b505050506040513d6000823e3d601f19601f82011682018060405250810190610205919061059d565b99508173ffffffffffffffffffffffffffffffffffffffff166395d89b416040518163ffffffff1660e01b815260040160006040518083038186803b15801561024d57600080fd5b505afa158015610261573d6000803e3d6000fd5b505050506040513d6000823e3d601f19601f8201168201806040525081019061028a919061059d565b98508173ffffffffffffffffffffffffffffffffffffffff1663313ce5676040518163ffffffff1660e01b815260040160206040518083038186803b1580156102d257600080fd5b505afa1580156102e6573d6000803e3d6000fd5b505050506040513d601f19601f8201168201806040525081019061030a91906105de565b97508073ffffffffffffffffffffffffffffffffffffffff166306fdde036040518163ffffffff1660e01b815260040160006040518083038186803b15801561035257600080fd5b505afa158015610366573d6000803e3d6000fd5b505050506040513d6000823e3d601f19601f8201168201806040525081019061038f919061059d565b95508073ffffffffffffffffffffffffffffffffffffffff166395d89b416040518163ffffffff1660e01b815260040160006040518083038186803b1580156103d757600080fd5b505afa1580156103eb573d6000803e3d6000fd5b505050506040513d6000823e3d601f19601f82011682018060405250810190610414919061059d565b94508073ffffffffffffffffffffffffffffffffffffffff1663313ce5676040518163ffffffff1660e01b815260040160206040518083038186803b15801561045c57600080fd5b505afa158015610470573d6000803e3d6000fd5b505050506040513d601f19601f8201168201806040525081019061049491906105de565b9350505050919395975091939597565b60006104b76104b28461071d565b6106f8565b9050828152602081018484840111156104cf57600080fd5b6104da8482856107a9565b509392505050565b6000813590506104f18161084d565b92915050565b6000815190506105068161084d565b92915050565b600082601f83011261051d57600080fd5b815161052d8482602086016104a4565b91505092915050565b60008151905061054581610864565b92915050565b60006020828403121561055d57600080fd5b600061056b848285016104e2565b91505092915050565b60006020828403121561058657600080fd5b6000610594848285016104f7565b91505092915050565b6000602082840312156105af57600080fd5b600082015167ffffffffffffffff8111156105c957600080fd5b6105d58482850161050c565b91505092915050565b6000602082840312156105f057600080fd5b60006105fe84828501610536565b91505092915050565b6106108161076a565b82525050565b60006106218261074e565b61062b8185610759565b935061063b8185602086016107a9565b6106448161083c565b840191505092915050565b6106588161079c565b82525050565b600061010082019050610674600083018b610607565b8181036020830152610686818a610616565b9050818103604083015261069a8189610616565b90506106a9606083018861064f565b6106b66080830187610607565b81810360a08301526106c88186610616565b905081810360c08301526106dc8185610616565b90506106eb60e083018461064f565b9998505050505050505050565b6000610702610713565b905061070e82826107dc565b919050565b6000604051905090565b600067ffffffffffffffff8211156107385761073761080d565b5b6107418261083c565b9050602081019050919050565b600081519050919050565b600082825260208201905092915050565b60006107758261077c565b9050919050565b600073ffffffffffffffffffffffffffffffffffffffff82169050919050565b600060ff82169050919050565b60005b838110156107c75780820151818401526020810190506107ac565b838111156107d6576000848401525b50505050565b6107e58261083c565b810181811067ffffffffffffffff821117156108045761080361080d565b5b80604052505050565b7f4e487b7100000000000000000000000000000000000000000000000000000000600052604160045260246000fd5b6000601f19601f8301169050919050565b6108568161076a565b811461086157600080fd5b50565b61086d8161079c565b811461087857600080fd5b5056fea26469706673582212200131adb3a6e6b3314f0c14707aac08aaa06c059a2b8d0766144acfc88da3e99064736f6c63430008040033",
  "linkReferences": {},
  "deployedLinkReferences": {}
}