{
  "_format": "hh-sol-artifact-1",
  "contractName": "DataUtils",
  "sourceName": "contracts/DataUtils.sol",
  "abi": [
    {
      "inputs": [
        {
          "internalType": "bytes32",
          "name": "data",
          "type": "bytes32"
        }
      ],
      "name": "bytes32ToString",
      "outputs": [
        {
          "internalType": "string",
          "name": "",
          "type": "string"
        }
      ],
      "stateMutability": "pure",
      "type": "function"
    },
    {
      "inputs": [
        {
          "internalType": "bytes",
          "name": "data",
          "type": "bytes"
        }
      ],
      "name": "decodeBytesAsBytes32",
      "outputs": [
        {
          "internalType": "bytes32",
          "name": "",
          "type": "bytes32"
        }
      ],
      "stateMutability": "pure",
      "type": "function"
    },
    {
      "inputs": [
        {
          "internalType": "bytes",
          "name": "data",
          "type": "bytes"
        }
      ],
      "name": "decodeBytesAsString",
      "outputs": [
        {
          "internalType": "string",
          "name": "",
          "type": "string"
        }
      ],
      "stateMutability": "pure",
      "type": "function"
    }
  ],
  "bytecode": "0x608060405234801561001057600080fd5b506107cf806100206000396000f3fe608060405234801561001057600080fd5b50600436106100415760003560e01c80630a2cdf92146100465780639201de551461007657806392aec02a146100a6575b600080fd5b610060600480360381019061005b91906104b5565b6100d6565b60405161006d919061059a565b60405180910390f35b610090600480360381019061008b9190610463565b6100f3565b60405161009d919061059a565b60405180910390f35b6100c060048036038101906100bb91906104b5565b61034c565b6040516100cd919061057f565b60405180910390f35b6060818060200190518101906100ec91906104f6565b9050919050565b606060005b60208160ff161080156101705750600060f81b838260ff1660208110610147577f4e487b7100000000000000000000000000000000000000000000000000000000600052603260045260246000fd5b1a60f81b7effffffffffffffffffffffffffffffffffffffffffffffffffffffffffffff191614155b15610188578080610180906106e9565b9150506100f8565b60008160ff1667ffffffffffffffff8111156101cd577f4e487b7100000000000000000000000000000000000000000000000000000000600052604160045260246000fd5b6040519080825280601f01601f1916602001820160405280156101ff5781602001600182028036833780820191505090505b509050600091505b60208260ff1610801561027f5750600060f81b848360ff1660208110610256577f4e487b7100000000000000000000000000000000000000000000000000000000600052603260045260246000fd5b1a60f81b7effffffffffffffffffffffffffffffffffffffffffffffffffffffffffffff191614155b1561034257838260ff16602081106102c0577f4e487b7100000000000000000000000000000000000000000000000000000000600052603260045260246000fd5b1a60f81b818360ff1681518110610300577f4e487b7100000000000000000000000000000000000000000000000000000000600052603260045260246000fd5b60200101907effffffffffffffffffffffffffffffffffffffffffffffffffffffffffffff1916908160001a905350818061033a906106e9565b925050610207565b8092505050919050565b600081806020019051810190610362919061048c565b9050919050565b600061037c610377846105e1565b6105bc565b90508281526020810184848401111561039457600080fd5b61039f848285610676565b509392505050565b60006103ba6103b584610612565b6105bc565b9050828152602081018484840111156103d257600080fd5b6103dd848285610685565b509392505050565b6000813590506103f481610782565b92915050565b60008151905061040981610782565b92915050565b600082601f83011261042057600080fd5b8135610430848260208601610369565b91505092915050565b600082601f83011261044a57600080fd5b815161045a8482602086016103a7565b91505092915050565b60006020828403121561047557600080fd5b6000610483848285016103e5565b91505092915050565b60006020828403121561049e57600080fd5b60006104ac848285016103fa565b91505092915050565b6000602082840312156104c757600080fd5b600082013567ffffffffffffffff8111156104e157600080fd5b6104ed8482850161040f565b91505092915050565b60006020828403121561050857600080fd5b600082015167ffffffffffffffff81111561052257600080fd5b61052e84828501610439565b91505092915050565b6105408161065f565b82525050565b600061055182610643565b61055b818561064e565b935061056b818560208601610685565b61057481610771565b840191505092915050565b60006020820190506105946000830184610537565b92915050565b600060208201905081810360008301526105b48184610546565b905092915050565b60006105c66105d7565b90506105d282826106b8565b919050565b6000604051905090565b600067ffffffffffffffff8211156105fc576105fb610742565b5b61060582610771565b9050602081019050919050565b600067ffffffffffffffff82111561062d5761062c610742565b5b61063682610771565b9050602081019050919050565b600081519050919050565b600082825260208201905092915050565b6000819050919050565b600060ff82169050919050565b82818337600083830152505050565b60005b838110156106a3578082015181840152602081019050610688565b838111156106b2576000848401525b50505050565b6106c182610771565b810181811067ffffffffffffffff821117156106e0576106df610742565b5b80604052505050565b60006106f482610669565b915060ff82141561070857610707610713565b5b600182019050919050565b7f4e487b7100000000000000000000000000000000000000000000000000000000600052601160045260246000fd5b7f4e487b7100000000000000000000000000000000000000000000000000000000600052604160045260246000fd5b6000601f19601f8301169050919050565b61078b8161065f565b811461079657600080fd5b5056fea26469706673582212207f3a2847014e52740d1b57a893097682cfa69394c38caeb8b1936ec35755c8ae64736f6c63430008040033",
  "linkReferences": {},
  "deployedLinkReferences": {}
}